:020000040800F2
:10000000005000200DA9000855A900083568000817
:1000100055A9000843680008516800080000000066
:1000200000000000000000000000000071690008EE
:1000300055A9000800000000016A0008B9A20008E4
:1000400055A9000855A9000855A90008394F00080E
:1000500055A9000855A9000841A3000847A30008B6
:100060004DA3000853A3000859A3000855A9000890
:1000700055A9000855A9000855A9000855A9000868
:1000800055A9000855A9000855A9000855A9000858
:1000900055A9000855A9000855A900085FA3000844
:1000A00055A90008D170000855A90008E57000089E
:1000B000E9700008FD7000081171000871AB0008BC
:1000C0007DAB000889AB000895AB000855A9000876
:1000D00055A90008A5AE0008BDAE0008D5AE0008C1
:1000E00075A3000801A9000855A900080000000038
:1000F0000000000000000000000000000000000000
:0C01000000000000000000005FF808F1A3
:10010C0010F8012B11F8013B012A28BF9A42F7D0B5
:10011C00D01A7047034613F8012B002AFBD1181A8A
:10012C000138704781F0004102E000BF83F00043CA
:10013C0030B54FEA41044FEA430594EA050F08BF76
:10014C0090EA020F1FBF54EA000C55EA020C7FEA3A
:10015C00645C7FEA655C00F0E2804FEA5454D4EBB7
:10016C005555B8BF6D420CDD2C4480EA020281EA81
:10017C00030382EA000083EA010180EA020281EAB9
:10018C000303362D88BF30BD11F0004F4FEA01310B
:10019C004FF4801C4CEA113102D0404261EB41011A
:1001AC0013F0004F4FEA03334CEA133302D05242A0
:1001BC0063EB430394EA050F00F0A780A4F101045C
:1001CC00D5F1200E0DDB02FA0EFC22FA05F2801896
:1001DC0041F1000103FA0EF2801843FA05F359417C
:1001EC000EE0A5F120050EF1200E012A03FA0EFCFB
:1001FC0028BF4CF0020C43FA05F3C01851EBE37125
:10020C0001F0004507D54FF0000EDCF1000C7EEB41
:10021C0000006EEB0101B1F5801F1BD3B1F5001F7F
:10022C000CD349085FEA30004FEA3C0C04F101049E
:10023C004FEA445212F5800F80F09A80BCF1004FC7
:10024C0008BF5FEA500C50F1000041EB045141EA49
:10025C00050130BD5FEA4C0C404141EB010111F44A
:10026C00801FA4F10104E9D191F0000F04BF0146F5
:10027C000020B1FA81F308BF2033A3F10B03B3F1D3
:10028C0020020CDA0C3208DD02F1140CC2F10C0263
:10029C0001FA0CF021FA02F10CE002F11402D8BFC1
:1002AC00C2F1200C01FA02F120FA0CFCDCBF41EA8D
:1002BC000C019040E41AA2BF01EB0451294330BD5C
:1002CC006FEA04041F3C1CDA0C340EDC04F1140439
:1002DC00C4F1200220FA04F001FA02F340EA030010
:1002EC0021FA04F345EA030130BDC4F10C04C4F156
:1002FC00200220FA02F001FA04F340EA0300294636
:10030C0030BD21FA04F0294630BD94F0000F83F47F
:10031C00801306BF81F480110134013D4EE77FEA62
:10032C00645C18BF7FEA655C29D094EA050F08BFAE
:10033C0090EA020F05D054EA000C04BF194610468F
:10034C0030BD91EA030F1EBF0021002030BD5FEAD3
:10035C00545C05D14000494128BF41F0004130BDFB
:10036C0014F580043CBF01F5801130BD01F000454F
:10037C0045F0FE4141F470014FF0000030BD7FEAC2
:10038C00645C1ABF194610467FEA655C1CBF0B46BD
:10039C00024650EA013406BF52EA033591EA030FD4
:1003AC0041F4002130BD00BF90F0000F04BF0021CC
:1003BC00704730B54FF4806404F132044FF00005FF
:1003CC004FF0000150E700BF90F0000F04BF002178
:1003DC00704730B54FF4806404F1320410F00045DE
:1003EC0048BF40424FF000013EE700BF42004FEAD9
:1003FC00E2014FEA31014FEA02701FBF12F07F4356
:10040C0093F07F4F81F06051704732F07F4208BF0C
:10041C00704793F07F4F04BF41F40021704730B513
:10042C004FF4607401F0004521F000411CE700BF5F
:10043C0050EA010208BF704730B54FF000050AE0E2
:10044C0050EA010208BF704730B511F0004502D5E3
:10045C00404261EB41014FF4806404F132045FEAE5
:10046C00915C3FF4D8AE4FF003025FEADC0C18BF8E
:10047C0003325FEADC0C18BF033202EBDC02C2F180
:10048C00200300FA03FC20FA02F001FA03FE40EA12
:10049C000E0021FA02F11444BDE600BF70B54FF016
:1004AC00FF0C4CF4E06C1CEA11541DBF1CEA1355F4
:1004BC0094EA0C0F95EA0C0F00F0DEF82C4481EA5C
:1004CC00030621EA4C5123EA4C5350EA013518BF7C
:1004DC0052EA033541F4801143F4801338D0A0FB69
:1004EC0002CE4FF00005E1FB02E506F00042E0FB16
:1004FC0003E54FF00006E1FB03569CF0000F18BF1C
:10050C004EF0010EA4F1FF04B6F5007F64F54074C3
:10051C0004D25FEA4E0E6D4146EB060642EAC62156
:10052C0041EA55514FEAC52040EA5E504FEACE2EC3
:10053C00B4F1FD0C88BFBCF5E06F1ED8BEF1004FC6
:10054C0008BF5FEA500E50F1000041EB045170BD42
:10055C0006F0004646EA010140EA020081EA030186
:10056C00B4EB5C04C2BFD4EB0C0541EA045170BD82
:10057C0041F480114FF0000E013C00F3AB8014F1FC
:10058C00360FDEBF002001F0004170BDC4F1000445
:10059C00203C35DA0C341BDC04F11404C4F12005C6
:1005AC0000FA05F320FA04F001FA05F240EA020021
:1005BC0001F0004221F0004110EBD37021FA04F657
:1005CC0042EB06015EEA430E08BF20EAD37070BD11
:1005DC00C4F10C04C4F1200500FA04F320FA05F070
:1005EC0001FA04F240EA020001F0004110EBD37072
:1005FC0041F100015EEA430E08BF20EAD37070BDE2
:10060C00C4F1200500FA05F24EEA020E20FA04F3BA
:10061C0001FA05F243EA020321FA04F001F0004169
:10062C0021FA04F220EA020000EBD3705EEA430EDA
:10063C0008BF20EAD37070BD94F0000F0FD101F009
:10064C000046400041EB010111F4801F08BF013C42
:10065C00F7D041EA060195F0000F18BF704703F080
:10066C000046520043EB030313F4801F08BF013D07
:10067C00F7D043EA0603704794EA0C0F0CEA1355C3
:10068C0018BF95EA0C0F0CD050EA410618BF52EA7D
:10069C004306D1D181EA030101F000414FF0000083
:1006AC0070BD50EA410606BF1046194652EA430691
:1006BC0019D094EA0C0F02D150EA013613D195EA05
:1006CC000C0F05D152EA03361CBF104619460AD14D
:1006DC0081EA030101F0004141F0FE4141F4700157
:1006EC004FF0000070BD41F0FE4141F4780170BD47
:1006FC0070B54FF0FF0C4CF4E06C1CEA11541DBFAC
:10070C001CEA135594EA0C0F95EA0C0F00F0A7F8AD
:10071C00A4EB050481EA030E52EA03354FEA0131DA
:10072C0000F088804FEA03334FF0805545EA1313ED
:10073C0043EA12634FEA022245EA111545EA1065B5
:10074C004FEA00260EF000419D4208BF964244F14C
:10075C00FD0404F5407402D25B084FEA3202B61A6B
:10076C0065EB03055B084FEA32024FF480104FF43F
:10077C00002CB6EB020E75EB030E22BFB61A7546B3
:10078C0040EA0C005B084FEA3202B6EB020E75EB46
:10079C00030E22BFB61A754640EA5C005B084FEAAE
:1007AC003202B6EB020E75EB030E22BFB61A75467B
:1007BC0040EA9C005B084FEA3202B6EB020E75EB86
:1007CC00030E22BFB61A754640EADC0055EA060E47
:1007DC0018D04FEA051545EA16754FEA06164FEA8A
:1007EC00C30343EA52734FEAC2025FEA1C1CC0D136
:1007FC0011F4801F0BD141EA00014FF000004FF0C3
:10080C00004CB6E711F4801F04BF01430020B4F183
:10081C00FD0C88BFBCF5E06F3FF6AFAEB5EB030C3B
:10082C0004BFB6EB020C5FEA500C50F1000041EB38
:10083C00045170BD0EF0004E4EEA113114EB5C0405
:10084C00C2BFD4EB0C0541EA045170BD41F48011D8
:10085C004FF0000E013C90E645EA060E8DE60CEAE0
:10086C00135594EA0C0F08BF95EA0C0F3FF43BAFFD
:10087C0094EA0C0F0AD150EA01347FF434AF95EAB4
:10088C000C0F7FF425AF104619462CE795EA0C0F98
:10089C0006D152EA03353FF4FDAE1046194622E765
:1008AC0050EA410618BF52EA43067FF4C5AE50EA3F
:1008BC0041047FF40DAF52EA43057FF4EBAE12E72F
:1008CC004FF0FF3C06E000BF4FF0010C02E000BF10
:1008DC004FF0010C4DF804CD4FEA410C7FEA6C5CF3
:1008EC004FEA430C18BF7FEA6C5C1BD001B050EA96
:1008FC00410C0CBF52EA430C91EA030F02BF90EA81
:10090C00020F0020704710F1000F91EA030F58BF3F
:10091C00994208BF90422CBFD8176FEAE37040F0A1
:10092C00010070474FEA410C7FEA6C5C02D150EA3F
:10093C00013C07D14FEA430C7FEA6C5CD6D152EAFA
:10094C00033CD3D05DF8040B704700BF84461046BF
:10095C0062468C461946634600E000BF01B5FFF7BE
:10096C00B7FF002848BF10F1000F01BD4DF808ED8E
:10097C00FFF7F4FF0CBF012000205DF808FB00BF5F
:10098C004DF808EDFFF7EAFF34BF012000205DF8B9
:10099C0008FB00BF4DF808EDFFF7E0FF94BF012006
:1009AC0000205DF808FB00BF4DF808EDFFF7CEFF07
:1009BC0094BF012000205DF808FB00BF4DF808ED46
:1009CC00FFF7C4FF34BF012000205DF808FB00BF17
:1009DC004FEA410212F5001215D211D56FF478735B
:1009EC00B3EB625212D94FEAC12343F0004343EAFE
:1009FC00505311F0004F23FA02F018BF40427047D9
:100A0C004FF00000704750EA013005D111F0004062
:100A1C0008BF6FF0004070474FF00000704700BFF8
:100A2C004A0011D212F5001211D20DD56FF4787361
:100A3C00B3EB62520ED44FEAC12343F0004343EAB6
:100A4C00505323FA02F070474FF00000704750EA01
:100A5C00013002D14FF0FF3070474FF0000070476B
:100A6C004FEA4102B2F1E04324BFB3F5001CDCF1C4
:100A7C00FE5C0DD901F0004C4FEAC0024CEA5070FC
:100A8C00B2F1004F40EB830008BF20F0010070472B
:100A9C0011F0804F21D113F13872BCBF01F000402E
:100AAC00704741F480114FEA5252C2F11802C2F160
:100ABC00200C10FA0CF320FA02F018BF40F00100E1
:100ACC004FEAC1234FEAD32303FA0CFC40EA0C0093
:100ADC0023FA02F34FEA4303CCE77FEA625307D1D0
:100AEC0050EA01331EBF4FF0FE4040F44000704707
:100AFC0001F0004040F0FE4040F40000704700BFA1
:100B0C0080F0004002E000BF81F0004142001FBFB6
:100B1C005FEA410392EA030F7FEA226C7FEA236CBF
:100B2C006AD04FEA1262D2EB1363C1BFD2184140B4
:100B3C0048404140B8BF5B42192B88BF704710F04A
:100B4C00004F40F4000020F07F4018BF404211F0ED
:100B5C00004F41F4000121F07F4118BF494292EA55
:100B6C00030F3FD0A2F1010241FA03FC10EB0C0081
:100B7C00C3F1200301FA03F100F0004302D549420E
:100B8C0060EB4000B0F5000F13D3B0F1807F06D3BB
:100B9C0040084FEA310102F10102FE2A51D2B1F1B3
:100BAC00004F40EBC25008BF20F0010040EA0300A8
:100BBC007047490040EB000010F4000FA2F1010255
:100BCC00EDD1B0FA80FCACF1080CB2EB0C0200FADF
:100BDC000CF0AABF00EBC25052421843BCBFD0402D
:100BEC001843704792F0000F81F4000106BF80F4A7
:100BFC0000000132013BB5E74FEA41037FEA226C6A
:100C0C0018BF7FEA236C21D092EA030F04D092F034
:100C1C00000F08BF0846704790EA010F1CBF002068
:100C2C00704712F07F4F04D1400028BF40F00040C5
:100C3C00704712F100723CBF00F50000704700F0E5
:100C4C00004343F0FE4040F4000070477FEA22620C
:100C5C0016BF08467FEA23630146420206BF5FEADD
:100C6C00412390EA010F40F4800070474FF00003DD
:100C7C0004E000BF10F0004348BF40425FEA000CA4
:100C8C0008BF704743F0964301464FF000001CE04C
:100C9C0050EA010208BF70474FF000030AE000BFA2
:100CAC0050EA010208BF704711F0004302D54042E0
:100CBC0061EB41015FEA010C02BF84460146002052
:100CCC0043F0B64308BFA3F18053A3F50003BCFA6D
:100CDC008CF2083AA3EBC25310DB01FA02FC63441A
:100CEC0000FA02FCC2F12002BCF1004F20FA02F221
:100CFC0043EB020008BF20F00100704702F1200214
:100D0C0001FA02FCC2F1200250EA4C0021FA02F274
:100D1C0043EB020008BF20EADC7070474FF0FF0C79
:100D2C001CEAD0521EBF1CEAD15392EA0C0F93EA74
:100D3C000C0F6FD01A4480EA010C400218BF5FEA16
:100D4C0041211ED04FF0006343EA501043EA511189
:100D5C00A0FB01310CF00040B1F5000F3EBF490083
:100D6C0041EAD3715B0040EA010062F17F02FD2A87
:100D7C001DD8B3F1004F40EBC25008BF20F001006A
:100D8C00704790F0000F0CF0004C08BF49024CEA81
:100D9C00502040EA51207F3AC2BFD2F1FF0340EA13
:100DAC00C250704740F400004FF00003013A5DDC84
:100DBC0012F1190FDCBF00F000407047C2F10002C5
:100DCC00410021FA02F1C2F1200200FA02FC5FEAB2
:100DDC00310040F1000053EA4C0308BF20EADC70FC
:100DEC00704792F0000F00F0004C02BF400010F46E
:100DFC00000F013AF9D040EA0C0093F0000F01F01B
:100E0C00004C02BF490011F4000F013BF9D041EA3C
:100E1C000C018FE70CEAD15392EA0C0F18BF93EA3E
:100E2C000C0F0AD030F0004C18BF31F0004CD8D168
:100E3C0080EA010000F00040704790F0000F17BFEF
:100E4C0090F0004F084691F0000F91F0004F14D035
:100E5C0092EA0C0F01D142020FD193EA0C0F03D18D
:100E6C004B0218BF084608D180EA010000F0004090
:100E7C0040F0FE4040F40000704740F0FE4040F46B
:100E8C00400070474FF0FF0C1CEAD0521EBF1CEA0A
:100E9C00D15392EA0C0F93EA0C0F69D0A2EB030228
:100EAC0080EA010C49024FEA402037D04FF08053C2
:100EBC0043EA111143EA10130CF000408B4238BF87
:100ECC005B0042F17D024FF4000C8B4224BF5B1A95
:100EDC0040EA0C00B3EB510F24BFA3EB510340EAE3
:100EEC005C00B3EB910F24BFA3EB910340EA9C0091
:100EFC00B3EBD10F24BFA3EBD10340EADC001B0101
:100F0C0018BF5FEA1C1CE0D1FD2A3FF650AF8B42A4
:100F1C0040EBC25008BF20F0010070470CF0004CB1
:100F2C004CEA50207F32C2BFD2F1FF0340EAC250DC
:100F3C00704740F400004FF00003013A37E792F09D
:100F4C00000F00F0004C02BF400010F4000F013AFB
:100F5C00F9D040EA0C0093F0000F01F0004C02BFF6
:100F6C00490011F4000F013BF9D041EA0C0195E75F
:100F7C000CEAD15392EA0C0F08D142027FF47DAFF8
:100F8C0093EA0C0F7FF470AF084676E793EA0C0FE8
:100F9C0004D14B023FF44CAF08466EE730F0004CE6
:100FAC0018BF31F0004CCAD130F000427FF45CAF76
:100FBC0031F000437FF43CAF5FE700BF4FEA4002E3
:100FCC00B2F1FE4F0FD34FF09E03B3EB12620DD96B
:100FDC004FEA002343F0004310F0004F23FA02F0D5
:100FEC0018BF404270474FF00000704712F1610F7C
:100FFC0001D1420205D110F0004008BF6FF0004053
:10100C0070474FF00000704742000ED2B2F1FE4F15
:10101C000BD34FF09E03B3EB126209D44FEA0023BB
:10102C0043F0004323FA02F070474FF00000704782
:10103C0012F1610F01D1420202D14FF0FF30704723
:10104C004FF00000704700BF0348044B834202D0AE
:10105C00034B03B1184770478C0200208C02002010
:10106C000000000005480649091A891001EBD171EE
:10107C00491002D0034B03B1184770478C02002073
:10108C008C0200200000000010B5064C237843B9F8
:10109C00FFF7DAFF044B13B10448AFF300800123D0
:1010AC00237010BD900200200000000058D70008EB
:1010BC0008B5054B1BB105490548AFF30080BDE8E9
:1010CC000840FFF7CFBF00BF0000000094020020D3
:1010DC0058D700087FB506224FF4E1310F4805F0D0
:1010EC00E1FE06224FF4E1310D4805F0DBFE0D491F
:1010FC0003A806F0ACF903A802F02CFE03A806F036
:10110C0061F9012200230849CDE9002307484FF477
:10111C00806204F0C1FC04F041FEFEE7F8090020F7
:10112C00B402002090D70008A6D70008C918000800
:10113C0070470000002307B51A4600931946034870
:10114C0006F012F803B05DF804FB00BFAC020020FF
:10115C0007B516221721094805F050FE1E221F2143
:10116C00074805F04BFEFF230522009304210623BC
:10117C00044805F03BFD03B05DF804FBB40200200D
:10118C00B4030020B404002008B50121062009F0A6
:10119C00CFFE0222014B1A6008BD00BF4C05002097
:1011AC0008B50121062009F011FF4FF4FA6004F094
:1011BC005FFF0620002109F009FFBDE808404FF44D
:1011CC00FA6004F055BF000008B50649064806F061
:1011DC001BF8FFF7D9FFFFF7E3FF012004F048FFEE
:1011EC00F9E700BFB1D70008F80900201FB5264C5D
:1011FC00204603F0ABFF00283BD1244901A806F0A0
:10120C0026F901A802F0A6FD01A806F0DBF820499A
:10121C0001A806F01CF901A802F09CFD01A806F03B
:10122C00D1F81C4920460AF004F91B4904F1370097
:10123C000AF0FFF840F23A5241F28833174904F1B0
:10124C002800C4E914230AF0F4F8144904F1190035
:10125C000AF0EFF8124901A806F0F9F801A802F01B
:10126C0079FD01A806F0AEF8204603F093FE04B019
:10127C0010BD0C4901A806F0EAF801A802F06AFDBD
:10128C0001A806F09FF8F2E760050020B9D9000824
:10129C00D3D90008FAD9000809DA000879DA00086D
:1012AC0018DA00082DDA000830B5184987B006F0B6
:1012BC0011FA98B1164C257895B1164903A806F089
:1012CC00C6F803A802F046FD03A806F07BF800233D
:1012DC001148237004F0F0FE04F0F0FC07B030BDB0
:1012EC000E4903A806F0B3F803A802F033FD03A8D7
:1012FC0006F068F802230195009380222B460649DC
:10130C00074804F0C9FB01232370E7E70CD9000858
:10131C005005002012D9000830D900083BD900082C
:10132C00D511000830B5194987B006F0D3F998B13A
:10133C00174C257895B1174903A806F088F803A82F
:10134C0002F008FD03A806F03DF8002312482370B4
:10135C0004F0B2FE04F0B2FC07B030BD0F4903A894
:10136C0006F075F803A802F0F5FC03A806F02AF8BD
:10137C000223019500934FF480622B4606490848DE
:10138C0004F08AFB01232370E6E700BF80D8000835
:10139C005105002084D80008A0D80008A9D800085E
:1013AC00C91D000830B5194987B006F093F998B1FA
:1013BC00174C257895B1174903A806F048F803A8EF
:1013CC0002F0C8FC03A805F0FDFF002312482370AF
:1013DC0004F072FE04F072FC07B030BD0F4903A894
:1013EC0006F035F803A802F0B5FC03A805F0EAFFF7
:1013FC000223019500934FF48062094B064909487A
:10140C0004F04AFB01232370E6E700BF5AD9000819
:10141C00530500205ED900087AD9000883D900084A
:10142C0060050020A930000830B5194987B006F0D6
:10143C0051F998B1174C257895B1174903A806F0C6
:10144C0006F803A802F086FC03A805F0BBFF0023F6
:10145C001248237004F030FE04F030FC07B030BDAD
:10146C000F4903A805F0F3FF03A802F073FC03A8CF
:10147C0005F0A8FF0223019500934FF480622B46E0
:10148C000649084804F008FB01232370E6E700BF77
:10149C003ED800085205002041D800085CD800084E
:1014AC0064D800081D33000830B5194987B006F020
:1014BC0011F998B1174C257895B1174903A805F087
:1014CC00C6FF03A802F046FC03A805F07BFF00232F
:1014DC001248237004F0F0FD04F0F0FB07B030BDAF
:1014EC000F4903A805F0B3FF03A802F033FC03A8CF
:1014FC0005F068FF0223019500934FF480622B46A0
:10150C000649084804F0C8FA01232370E6E700BF37
:10151C00C6D8000854050020CAD80008E6D8000830
:10152C00EFD8000835350008002307B51A4600939C
:10153C001946034805F018FE03B05DF804FB00BF24
:10154C005805002030B581498BB0044606F0C2F82E
:10155C000546002843D07E4904A805F078FF0A22EE
:10156C004FF4806101A805F0FFFF01A904A806F063
:10157C006FF8014607A805F0B3FF07A802F0EAFBD5
:10158C0007A805F01FFF01A805F01CFF04A805F033
:10159C0019FF704805F0B7FB00281EDD6D4901A846
:1015AC0005F0CCFE01A806F0D8F96B4904A805F0AB
:1015BC004EFF01A904A806F04BF8014607A805F058
:1015CC008FFF07A802F0C6FB07A805F0FBFE04A8D6
:1015DC0005F0F8FE01A805F0F5FE0BB030BD5F4933
:1015EC00204606F077F810B35D4907A805F02FFFE9
:1015FC0007A802F0AFFB07A805F0E4FE2C46594DF6
:10160C00204609F0AFF91022014607A805F09BFF10
:10161C0007A9284605F0D9FD013407A805F0D2FE2C
:10162C00B4F5806FECD14F4805F0DCFDB1E74E49C5
:10163C00204606F04FF818B14C4802F0F7FBA8E72B
:10164C004B49204606F046F820B34A4904A805F059
:10165C00FEFE494907A805F0FAFE07A904A802F006
:10166C009DFB07A805F0AEFE04A805F0ABFE4349B0
:10167C0004A805F0ECFE424907A805F0E8FE04A812
:10168C0007A902F08BFB07A805F09CFE04A805F047
:10169C0099FE7EE73B4907A805F0D9FE07A920462D
:1016AC0006F083F8054607A805F08CFE002D364998
:1016BC002BDB04A805F0CBFEA3680522214607A866
:1016CC0006F09CF807A904A805F014FF07A805F07C
:1016DC0079FE04A907A805F003FF07A9234802F027
:1016EC001DFC07A805F06EFE284907A805F0AFFE03
:1016FC0007A802F02FFB07A805F064FE1B4803F0B7
:10170C0049FC1A4802F092FBC0E7204605F0E2FFC4
:10171C0000287FF43EAF1E4904A805F098FE214630
:10172C0004A805F095FF014607A805F0D9FE07A807
:10173C0002F010FB07A805F045FE04A805F042FED8
:10174C002146044805F056FD23E700BFC6D7000824
:10175C00D0D70008B402002035D80008DFD7000825
:10176C00E7D70008F8090020F2D700086005002030
:10177C00FBD7000801D8000809D8000814D80008C5
:10178C001AD8000827D8000879DA000818DA0008F7
:10179C002DD800087FB54049684605F058FE3F48F3
:1017AC0005F0B1FA00281CDD3C4903A805F0C6FD84
:1017BC0003A9684605F09EFE03A805F003FE384910
:1017CC0003A805F044FE694603A805F041FF35491E
:1017DC0005F04AFF0146314805F00CFD03A805F061
:1017EC00F1FD694603A805F07BFE03A8FFF75CFE3C
:1017FC0003A805F0E7FD694603A805F071FE03A8F0
:10180C00FFF7D0FD03A805F0DDFD694603A805F040
:10181C0067FE03A8FFF786FD03A805F0D3FD694614
:10182C0003A805F05DFE03A8FFF73EFD03A805F035
:10183C00C9FD694603A805F053FE03A8FFF7F4FDA4
:10184C0003A805F0BFFD1849684605F043FFE8B949
:10185C001649684605F03EFFC0B91549684605F0C3
:10186C0039FF98B91349684605F034FF70B912492D
:10187C00684605F02FFF48B9694603A805F030FE0D
:10188C0003A8FFF75FFE03A805F09CFD684605F072
:10189C0099FD07B05DF804FB79DA0008F80900201F
:1018AC00A0D9000878DA00085AD900083ED80008F8
:1018BC00C6D800080CD9000880D800081FB5094903
:1018CC0001A805F0C4FD01A802F044FA01A805F036
:1018DC0079FDFFF78BFCFFF75DFF012004F0C8FBDF
:1018EC00F9E700BFA3D900082DE9F04F054687B0F2
:1018FC0010468946402114461F4605F081FD09F02B
:10190C00AFFB8246DFF86CB2002009F0ABFB286815
:10191C0003689B689847002840F30881286803688F
:10192C00DB689847011EF2DDC9B2204605F072FE55
:10193C0077B1394603A805F08AFD03A9204605F0C6
:10194C00DBFE064603A805F03DFD002E40F00081AD
:10195C00109B73B1194603A805F079FD03A9204625
:10196C0005F0CAFE064603A805F02CFD002E40F03B
:10197C00F180119B73B1194603A805F068FD03A90A
:10198C00204605F0B9FE064603A805F01BFD002E07
:10199C0040F0E280129B73B1194603A805F057FD85
:1019AC0003A9204605F0A8FE064603A805F00AFD8B
:1019BC00002E40F0D380139B73B1194603A805F099
:1019CC0046FD03A9204605F097FE064603A805F040
:1019DC00F9FC002E40F0C480624903A805F037FDE5
:1019EC0003A9204605F088FE064603A805F0EAFC8C
:1019FC0066B32C222968684605F0B4FC684605F0ED
:101A0C00D4FF012806461CD10A22296803A805F038
:101A1C00A9FC03A805F0C9FF804603A805F0D2FC79
:101A2C00B8F1040F05D805EB8808D8F8043003B1D9
:101A3C005E774D49204605F065FD684605F0C2FC11
:101A4C0065E76946204605F0D2FDF6E7474903A84D
:101A5C0005F0FDFC03A9204605F04EFE804603A8C8
:101A6C0005F0B0FCB8F1000F26D02C22296803A891
:101A7C0005F078FC03A805F098FF064603A805F0CE
:101A8C00A1FC0A22296803A805F06CFC03A805F048
:101A9C008CFF804603A805F095FC042E07D805EBB7
:101AAC00860673681BB10122A3F816805A772E495B
:101ABC00204605F027FD2AE7594603A805F0C7FC88
:101ACC0003A9204605F018FE064603A805F07AFC8B
:101ADC00002E3FF41CAF264903A805F0B8FCA26801
:101AEC0003A9083A204605F063FE064603A8023611
:101AFC0005F068FC32462C21204605F039FE3246B2
:101B0C000346214603A805F079FE03A805F04DFF16
:101B1C00064603A805F056FC042EC8D805EB86062D
:101B2C007368002BC3D083F81C80C0E709F098FAC7
:101B3C00A0EB0A004845FFF4E7AE204605F00DFF88
:101B4C000949204605F0DEFC002007B0BDE8F08F07
:101B5C000120FAE70220F8E70320F6E70420F4E777
:101B6C000520F2E758DA000879DA000865DA00088F
:101B7C0077DA000871DA0008F0B516461F460446FD
:101B8C000D4689B00B4905A805F061FC109B05AA10
:101B9C0003930F9B294602930E9B2046CDE90073BD
:101BAC003346FFF7A1FE044605A805F00BFC2046C2
:101BBC0009B0F0BD79DA000838B504460D46006866
:101BCC00094905F007FB2946206805F003FB074986
:101BDC00206805F0FFFA206803685B699847BDE848
:101BEC003840002009F03EBA7ADA000877DA0008AB
:101BFC0030B50D468FB0284904462846FFF7DCFF68
:101C0C00264905A805F023FC0023CDE902330193F6
:101C1C00234B05AA00934FF47A71224B2846FFF709
:101C2C0063FE012809D01D49204605F010FC05A8CB
:101C3C0005F0C8FB20460FB030BD1B4908A805F0C5
:101C4C0006FC16490BA805F002FC0BAA08A905A86E
:101C5C0005F0FAFD0BA805F0B5FB08A805F0B2FBE2
:101C6C00124908A805F0F3FB11490BA805F0EFFB8E
:101C7C0008A90BAA05A805F0E7FD0BA805F0A2FB27
:101C8C0008A805F09FFB05A805F067FE05A92046EE
:101C9C0005F00DFCCBE700BF4FDA000879DA00083D
:101CAC0047DA000842DA000851DA000877DA00084F
:101CBC0078E8000830B5114D114C89B0114928460F
:101CCC0005F088FA214605A8FFF792FF05A92846DA
:101CDC0005F090FA05A805F075FB20460A49FFF7B8
:101CEC006BFF0023094ACDE9013300934FF47A715D
:101CFC00074B2046FFF740FF09B030BDF809002024
:101D0C00C0050020AADA0008B7DA000842DA000899
:101D1C0047DA000830B50024204D8BB02049284606
:101D2C00FFF74AFFCDE9014400941E4B1E4A4FF4C5
:101D3C007A712846FFF720FF012814D01B4904A80C
:101D4C0005F085FB1A491B4805F044FA04A919480B
:101D5C0005F050FA41F2883004F08AF904A805F035
:101D6C0031FB0BB030BD296807A80A2205F0FAFA3E
:101D7C000C4B114A4FF47A71CDE90144009428467A
:101D8C00FFF7FAFE07A805F0E8FD07A904A805F07F
:101D9C008EFB07A805F016FBD4E700BFC00500209A
:101DAC007DDA000847DA000886DA000879DA0008DC
:101DBC0092DA0008F809002042DA000808B5064952
:101DCC00064805F021FAFFF775FFFFF7A3FF012086
:101DDC0004F04EF9F9E700BF99DA0008F809002081
:101DEC0013B500240848234622462146009405F0EA
:101DFC00BBF9142221460548054B40F8043B02B0C0
:101E0C00BDE8104009F0A8B9B8050020C0050020B5
:101E1C00B4020020036810B49C6B4B23A44610BC86
:101E2C006047000013B50368DC6B044B00934B68F0
:101E3C00694601934B23A04702B010BD50E4000843
:101E4C0007B503688DF807105B6801220DF10701D7
:101E5C00984703B05DF804FB07B5036801229B6A41
:101E6C000DF107019847012814BF4FF0FF309DF882
:101E7C00070003B05DF804FB4FF0FF3070470369B7
:101E8C00186803685B691847036810B59B680446BB
:101E9C00984708B9207F10BD0120FCE708B50368FE
:101EAC001B6B9847003018BF012008BDF8B50746DA
:101EBC0016460D460B4C0C49204605F08BF939465D
:101ECC00204605F087F90949204605F083F932468A
:101EDC002946204605F054F92046BDE8F84005F0A7
:101EEC0081B900BFF8090020BADB0008CCDB000880
:101EFC0070B505460C46084649B1FEF70BF92B6840
:101F0C00024621462846BDE870405B68184770BD04
:101F1C002DE9FF410C46064698461746194901A87B
:101F2C0005F095FA184D102101A805F069FA2179F0
:101F3C0001A805F07CFB294601A805F05CFB617942
:101F4C0001A805F074FB294601A805F054FBA17902
:101F5C0001A805F06CFB294601A805F04CFBE179C2
:101F6C0001A805F064FB33683A469C6B0199434623
:101F7C003046A047044601A805F024FA204604B0D8
:101F8C00BDE8F08179DA000854DB0008F8B50446A6
:101F9C000F46164609F064F8054609F061F8401B37
:101FAC00B04214D209F05CF8401BB04207D2206852
:101FBC0003689B68984710B909F054F8F2E7206859
:101FCC000368DB689847B842E7D10120F8BD0020D0
:101FDC00FCE71FB5079C0294069CCDE90034134620
:101FEC000A464FF47A71FFF7C7FD04B010BD00002C
:101FFC002DE9F0430446002585B09DF830608846F5
:10200C00006836499946174605F0E4F834492068CB
:10201C0005F0E0F80A223146206805F03FF9314915
:10202C00206805F0D7F8206803685B6998470020A2
:10203C0009F018F8CDE900552B462B4A2B492046C0
:10204C00FFF7C7FF0EB1012845D12449206805F0E0
:10205C00C1F82749206805F0BDF80A2249462068D6
:10206C0005F029F92C21206805F0B8F821492068E1
:10207C0005F0B0F82049206805F0ACF8414620681E
:10208C0005F0A8F81D49206805F0A4F80A22394685
:10209C00206805F003F91349206805F09BF82068C7
:1020AC0003685B699847002008F0DCFF4FF47A70F6
:1020BC00134B0D990293134B41430193124B134A4B
:1020CC0000932046124BFFF757FD431E58425841D0
:1020DC0005B0BDE8F0832846FAE700BF7ADA0008BD
:1020EC005CDD000877DA0008D5DB0008D0DB0008DF
:1020FC0065DD000870DD0008CEDC000875DD000829
:10210C0094DD00089FDD0008A7DD000887DD0008CE
:10211C0078DD0008F7B51F4603680446DB6A0D46F8
:10212C0016469847002008F09DFF0020237DC4E947
:10213C001800CDE90007324629462069FFF758FF01
:10214C00207703B0F0BD000010B51649164805F015
:10215C0041F8164B1448196805F03CF8144B154817
:10216C00196802F025FC0446B0B113490E4805F07D
:10217C004BF8124A12490F4802F00FFD114B0D4853
:10218C00196802F084FD10490A4802F080FDBDE890
:10219C001040084802F0FFBA0C49034805F034F827
:1021AC00204610BD77DB0008F8090020080000204D
:1021BC0000000020740600208CDB000895DB000872
:1021CC00A5DB00080C000020ACDB000886DB000857
:1021DC00D0E91030181A48BF40307047F8B50446A3
:1021EC000F4616461D460E49006804F0F3FF3946AB
:1021FC00206804F0EFFF3146206804F0EBFF29461D
:10220C00206804F0EBFF0749206804F0E3FF206826
:10221C0003685B699847BDE8F840002008F022BFCE
:10222C007ADA000877DA00082DE9F041044688468E
:10223C0017461E4611490068069D04F0CBFF414627
:10224C00206804F0C7FF0A223946206805F033F8ED
:10225C003146206804F0C2FF0A222946206805F0A6
:10226C002CF80749206804F0B5FF206803685B6907
:10227C009847BDE8F041002008F0F4BE7ADA000877
:10228C0077DA00082DE9F04F0446002587B000915D
:10229C002C233A491646FFF7C7FFCDE900552B46CC
:1022AC00374A38492046FFF794FE012863D14FF492
:1022BC007A722C212046FFF769FE4FF47A722C219A
:1022CC002046FFF763FE2C22216803A805F04AF88C
:1022DC0003A805F06AFB074603A805F073F80A2269
:1022EC00216803A805F03EF803A805F05EFB8046C4
:1022FC0003A805F067F8B60004EB0609BD422AD026
:10230C0008F0AEFE8346206803689B6898478246B7
:10231C0060B908F0A5FED9F80430A0EB0B009B685F
:10232C00984203D2504608F09DFEECE72068013538
:10233C000368DB689847D9F804305FFA80FC196EA3
:10234C00586E4A1C02F03F0282421EBFC91881F827
:10235C0020C01A66D2E726447368094AA3F816808F
:10236C0000230949CDE900332046FFF732FE3846F9
:10237C0007B0BDE8F08F2F46F9E700BF7EDE0008FE
:10238C00D5DB00085ADA0008D0DB000870B504462B
:10239C000E4615460C49006804F01CFF31462068B7
:1023AC0004F018FF0A222946206804F084FF07492C
:1023BC00206804F00FFF206803685B699847BDE84C
:1023CC007040002008F04EBE7ADA000877DA000878
:1023DC002DE9F0410546002686B00A460F462F49E6
:1023EC00FFF7D4FFCDE9006633462D4A2D49284628
:1023FC00FFF7EFFD01282DD0002405EB87033A46AB
:10240C0029492846D3F80480FFF7C0FF2346244A05
:10241C002649CDE900442846FFF7DBFD244B254A2D
:10242C000193254B254900932846254BFFF7D1FDF9
:10243C0006462346CDE90044194A22492846FFF7AF
:10244C00C8FD731E5E425E4188F81C60204606B0D3
:10245C00BDE8F0814FF47A722C212846FFF796FDE7
:10246C004FF47A722C212846FFF790FD0A22296836
:10247C0003A804F077FF03A805F097FA044603A815
:10248C0004F0A0FFCDE900663346054A0D49284605
:10249C00FFF79FFD002CAFD0D8E700BFE7DD0008A9
:1024AC00D5DB00085ADA0008F4DD000800DE00086D
:1024BC002DDE000816DE000838DE000820DE0008DD
:1024CC000BDE0008D0DB0008F0B505460124002720
:1024DC0085B055F8246046B1737F33B1611E7777B0
:1024EC00C9B22846FFF774FFF0820134062CF0D1F4
:1024FC000024286803689B68984748B10023CDE9FD
:10250C00014400941A460F212846FFF735FBF0E7EB
:10251C0005B0F0BD38B50446002004F1200508F0E4
:10252C00A1FD2846FFF754FE70B908F099FDA36988
:10253C00C01AB0F5FA7F04D90123637708F090FD37
:10254C00A0612069FFF7C0FF2846FFF741FEE38A30
:10255C00184438BD2DE9F74F044600208A460092F6
:10256C0008F080FD2069FFF7AFFF002704F1200B76
:10257C00009B9F424FD25846A3EB0708FFF728FE5B
:10258C00804501D920B38046C14653465846019335
:10259C00FFF71EFE019B10B9C2444744E8E7666E84
:1025AC00C6F140054D45A8BF4D468542A8BF05461E
:1025BC000BEB060118462A4608F0A6FD03462E44EE
:1025CC0006F03F06B9EB050966662B44E4D0DDE75F
:1025DC0008F046FDA369C01AB0F5FA7F05D94FF093
:1025EC000103637708F03CFDA0612069FFF76CFFE5
:1025FC00E18A81B1D4E918239B1A002BD8BF403350
:10260C00013B9BB2994228BF19462069227DFFF7F6
:10261C0039FE0028ACD1384603B0BDE8F08F00007D
:10262C002DE9F3410446002008F01CFD0027C4E905
:10263C0018772069FFF748FFE58A266994F814801B
:10264C007DB1D4E91831C91A0029D8BF40310139FC
:10265C0089B2A942424628BF29463046FFF712FEEE
:10266C00E5E71449306804F0B5FD1349306804F00F
:10267C00B1FD0A224146306804F01DFE0F49306856
:10268C0004F0A8FD0E49306804F0A4FD306803681E
:10269C005B699847284608F0E5FC2577CDE900559D
:1026AC002B46084A08492069FFF793FC02B0BDE8A5
:1026BC00F08100BF7ADA00085ADE0008F7DC000867
:1026CC0077DA0008D5DB0008D0DB0008F0B505464A
:1026DC00164687B000200F4608F0C4FC2869FFF7A7
:1026EC00F3FE2C6900962A7D00252C231C492046DC
:1026FC00FFF79AFDCDE900552B461A4A1A49204698
:10270C00FFF767FC012803D00024204607B0F0BD7A
:10271C0020683246036839465B689847206803682E
:10272C005B699847CDE900552B460E4A0F49204668
:10273C00FFF74FFC0128E7D14FF47A722C21204689
:10274C00FFF724FC21680A2203A804F00BFE03A85F
:10275C0005F02BF904B203A804F034FED5E700BF52
:10276C0065DE0008D5DB0008A1D900086FDE000883
:10277C0070B5044616461D46006804F02BFD314624
:10278C00206804F027FD29462068BDE8704004F05D
:10279C0021BD000070B50646002486B01549FFF730
:1027AC000BFACDE900442346134A14493046FFF78F
:1027BC0010FC01281CD14FF47A722C213046FFF703
:1027CC00E5FB0A22316803A804F0CCFD03A805F050
:1027DC00ECF8054603A804F0F5FDCDE900442346CA
:1027EC00054A07493046FFF7F4FBE8B206B070BD66
:1027FC000420FBE74ADE0008D5DB000851DE0008A8
:10280C00D0DB000830B50546002485B01149FFF730
:10281C00D3F9CDE9014400940F4B104A4EF66021D8
:10282C002846FFF7A9F9012812D10D492846FFF7D0
:10283C00C3F9094BCDE901440094084A4EF66021D6
:10284C002846FFF799F9431E5842584105B030BD50
:10285C002046FBE7B9DD0008D5DB0008D0DB00081B
:10286C00C2DD000870B50546002486B01A49FFF792
:10287C00A3F9CDE900442346184A19492846FFF725
:10288C00A8FB012802D0002006B070BD0A222968DE
:10289C0003A804F067FD03A805F087F8064603A813
:1028AC0004F090FDCDE9004423460C4A0D4928461E
:1028BC00FFF78FFB012EE6D10B492846FFF77CF979
:1028CC002346CDE90044054A06492846FFF781FB1B
:1028DC00431E58425841D7E7CBDD0008D5DB000832
:1028EC00D3DD0008D0DB0008DDDD00082DE9FF4159
:1028FC0004460025884617461E46FFF783FF8B4982
:10290C002046FFF759F92B46894A8A49CDE90055EB
:10291C002046FFF75EFB2223424687492046FFF7FD
:10292C005DFCCDE900552B46814A82492046FFF7D4
:10293C0050FB7FB13B786BB122233A467F4920464E
:10294C00FFF74CFCCDE900552B46794A79492046D6
:10295C00FFF73FFB7EB133786BB1222332467849C7
:10296C002046FFF73BFC0023714ACDE90033714947
:10297C002046FFF72EFB00252223424671492046B4
:10298C00FFF72CFC2B466A4A6A49CDE900552046D4
:10299C00FFF71FFB6C492046FFF70EF9644B654AA5
:1029AC004EF66021CDE9015500952046FFF7E4F87D
:1029BC0066492046FFF700F95D4B5E4A6449CDE954
:1029CC00015500952046FFF7D7F862492046FFF7DE
:1029DC00F3F8CDE901550095554B564A47F2305165
:1029EC002046FFF7C9F8012803D0002004B0BDE849
:1029FC00F08159492046FFF7DFF8CDE901550095E4
:102A0C004B4B4C4A4EF660212046FFF7B5F8012897
:102A1C00EBD152492046FFF7CFF8CDE900552B46B4
:102A2C00434A44492046FFF7D4FA0128DDD14C49EA
:102A3C002046FFF7C1F8CDE900552B463C4A3D49ED
:102A4C002046FFF7C6FA0128CFD146492046FFF7AA
:102A5C00B3F8CDE900552B46354A36492046FFF7E9
:102A6C00B8FA0128C1D14049206804F0B3FB3F49B2
:102A7C00206804F0AFFB4146206804F0ABFB3C49F6
:102A8C00206804F0A7FB3946206804F0A3FB384902
:102A9C00206804F09FFB374A3146374B2046FFF73E
:102AAC0067FE206803685B699847284608F0DAFAE5
:102ABC00CDE9015500951E4B1E4A4EF6602120466D
:102ACC00FFF75AF8012890D12C492046FFF774F8EB
:102ADC00CDE901550095164B164A4EF6602120465D
:102AEC00FFF74AF8012880D125492046FFF764F802
:102AFC00CDE9015500950E4B0E4A42F2107120465D
:102B0C00FFF73AF801287FF470AF1E492046FFF713
:102B1C0053F82B46CDE90055054A06492046FFF7E8
:102B2C0058FA431E5842584160E700BF7CDC00084D
:102B3C00D5DB0008D0DB000898DC0008ABDC000813
:102B4C00BFDC0008D2DC0008E4DC0008EFDC000885
:102B5C00084C0100FADC000805DD00080EDD000859
:102B6C0018DD000824DD00087ADA000830DD0008E2
:102B7C00CEDC0008D0DC000877DA000838DD00086D
:102B8C00DDDD00083FDD00082DE9F04300248DB0A9
:102B9C005A4D5B495B4804F037FB5B49594804F0DC
:102BAC0033FB294603A8FFF723F85849554804F08E
:102BBC0011FB03A9534804F01DFB55492846FEF7A9
:102BCC00FBFFCDE900442346524A53492846FFF700
:102BDC0000FA01282ED0514906A804F038FC06A9A9
:102BEC004F48504E504D514C04F084FC06A804F054
:102BFC00E9FB33682A6821684048FFF777FE4C49A7
:102C0C00404804F0E7FA08F02BFA4EF65F28074626
:102C1C00DFF8E89008F024FAC01B404522D848465B
:102C2C00FFF7B8FD00F0FB00012823D0FA2008F0D4
:102C3C0019FAEFE7296809A80A2204F093FB234646
:102C4C00344A3C49CDE900442846FFF7C2F909A8AB
:102C5C0004F083FE09A906A804F029FC09A804F0D5
:102C6C00B1FBBCE73449274804F0CEFA42F21070AD
:102C7C0003F0FEF93149234804F0C6FA1F48FFF768
:102C8C0089FD00F0FB00012803D12D491D4804F0FB
:102C9C00BBFA2C491B4804F094FA2168194804F03B
:102CAC0099FA33682A6821681448FFF71FFE38B96F
:102CBC002149144804F0A8FA42F2107003F0D8F934
:102CCC001E49104804F0A0FA0C48FFF7CBFD18B1D0
:102CDC001D490C4804F098FA1C491D48B1F85020C5
:102CEC00373101F0D7FF1B49194801F0D8FF03A871
:102CFC0004F068FB0DB0BDE8F08300BF5C0600205B
:102D0C0010DB0008F809002024DB0008AADA000810
:102D1C003ADB0008D5DB000877DA000879DA00081E
:102D2C0048060020100000201400002004000020A1
:102D3C003FDB0008D0DB000886DB00088CDB0008DA
:102D4C0056DB000877DB000868DB00082C07002046
:102D5C0074060020B91E000873B504463F4E0121CD
:102D6C00062008F0E5F821463D4C5822304608F084
:102D7C00CBF93C4920463C4D04F046FA3B492046F1
:102D8C0004F028FA3146204604F024FA294620465D
:102D9C0004F03AFA3649204604F01CFA06F11901FF
:102DAC00204604F017FA2946204604F02DFA314942
:102DBC00204604F00FFA06F12801204604F00AFA26
:102DCC002946204604F020FA2B49204604F002FA4A
:102DDC0006F13701204604F0FDF92946204604F09F
:102DEC0013FA2649204604F0F5F90A22316D2046E3
:102DFC0004F054FA2946204604F006FA20492046ED
:102E0C0004F0E8F90A22716D204604F047FA2946CD
:102E1C00204604F0F9F91B4B1B4A1C4C1A601C4B46
:102E2C001C4A1D601C4B1D601C4B1A6040F23A5230
:102E3C001B4B1A601B4B1C4A1A60FFF7A5FE204661
:102E4C001A49FEF7B9FE0023194ACDE90033194996
:102E5C002046FFF7BEF802B070BD00BF2C07002063
:102E6C00F809002016DC000879DA00082DDC0008CF
:102E7C0034DC00083CDC000844DC00084EDC0008B4
:102E8C0056DC00080400002062DC00085C06002010
:102E9C001400002009DA00081000002008000020AF
:102EAC00180000201C0000206EDC0008B7DA0008B7
:102EBC00D5DB0008D0DB000837B50024144D2346C1
:102ECC00224621460094134804F04EF92846124B32
:102EDC001422214640F8043B08F03EF94FF47A7373
:102EEC000E490F488B600F4B4C600B600123C1E9FE
:102EFC0018448C830D610B75CC828C61A96001F038
:102F0C000DFB0949094803B0BDE8304004F09FBAF5
:102F1C005C060020D8050020B4020020E00500204B
:102F2C0074060020CCDA000879DA00084806002084
:102F3C00014804F047BA00BF480600202DE9F041D3
:102F4C00ADF5016D08F08CF80546474801F023FCFF
:102F5C000646A0B94549464804F056F908F080F8F1
:102F6C0041F28832434C2368C31A934204D920603F
:102F7C00FFF7EAF800B126600A2003F079F83E4F1B
:102F8C003E493B68496DEB1A8B4240D93C4904A839
:102F9C0004F0A6FA002304AA3A4901A800F06EFC3A
:102FAC0004A804F00FFA039A0023013204A901A823
:102FBC0004F0C6FB0024DFF8B88004AE16F8011B41
:102FCC00404603F0E3FE039B0134A342F6D22E49A4
:102FDC00274804F019F9039A2C4900230132096897
:102FEC00214801F0EBFD78B1039A04A901321E4887
:102FFC0001F083FA1C4801F072FB01282ED1244900
:10300C001B4804F001F93D6001A804F0DBF91848F5
:10301C0003F079FE00280ADD154904A804F08EF9A6
:10302C0004A91C4804F0E6F804A804F0CBF91948EC
:10303C0003F069FE00280ADD164904A804F07EF9A5
:10304C0004A90B4804F0D6F804A804F0BBF9064810
:10305C0001F0BCFC0DF5016DBDE8F0810E49044892
:10306C0004F0D2F8D0E700BF74060020DDDB0008C6
:10307C00F809002054060020580600202C070020D8
:10308C00480600205C06002078E800081C000020A0
:10309C00F3DB0008B4020020FBDB0008044608B593
:1030AC000649074804F0B0F82046FFF755FEFFF735
:1030BC0045FF012002F0DCFFF9E700BF05DC00084A
:1030CC00F809002008B50021032007F031FF042186
:1030DC00182007F02DFF0421192007F029FF0021EB
:1030EC00102007F025FF00210F2007F021FF012100
:1030FC000E2007F01DFFBDE8084001210D2007F050
:10310C0017BF00002DE9F0411E4D86B0064629463A
:10311C001D4801F068F9044630B91B4801F056F916
:10312C00204606B0BDE8F0811849304604F0EAF9B3
:10313C00DFF86080164FEC1D14F801390F2B03D803
:10314C004146304604F057FA1022617803A804F087
:10315C00FAF903A9684604F0C3F93946684604F045
:10316C0083FA0146304604F042FA684604F02AF924
:10317C0003A804F027F9AC42DED1034801F026F98C
:10318C000120CEE7840700208C07002079DA0008A4
:10319C0078E80008BCDE000800B553488BB0FFF798
:1031AC00B1FF18B95149504804F0ACF9504904A882
:1031BC0004F04DF94F4907A804F049F900211820F3
:1031CC0000F0DAFC0222014601A804F0DFF901AAA2
:1031DC0007A904A800F04EFE01A804F0F3F807A814
:1031EC0004F0F0F804A804F0EDF8414904A804F048
:1031FC002EF9414907A804F02AF90021192000F002
:10320C00BBFC0222014601A804F0C0F901AA07A9DF
:10321C0004A800F02FFE01A804F0D4F807A804F0CD
:10322C00D1F804A804F0CEF8344904A804F00FF93E
:10323C00334907A804F00BF90021102000F09CFC86
:10324C000222014601A804F0A1F901AA07A904A8C9
:10325C0000F010FE01A804F0B5F807A804F0B2F8CD
:10326C0004A804F0AFF8254904A804F0F0F82549A7
:10327C0007A804F0ECF800210F2000F07DFC0222DE
:10328C00014601A804F082F901AA07A904A800F0DC
:10329C00F1FD01A804F096F807A804F093F804A82F
:1032AC0004F090F8184901A804F0D1F8174904A8C3
:1032BC0004F0CDF80C4907A804F012F907AA04A9E8
:1032CC0001A800F0D7FD07A804F07CF804A804F0CE
:1032DC0079F801A804F076F84FF47A7002F0C8FE81
:1032EC000BB05DF804FB00BFA0070020A9DE0008AE
:1032FC00BEDE0008C9DE0008CDDE0008D1DE000805
:10330C00D9DE0008DDDE0008E1DE0008E6DE00089C
:10331C0008B50649064803F077FFFFF7D3FEFFF721
:10332C003BFF012002F0A4FEF9E700BFEBDE000832
:10333C00F809002008B50C21044801F04DF8BDE84F
:10334C0008400349034804F082B800BF8C070020F2
:10335C00A9DE0008A0070020014804F033B800BF24
:10336C00A00700200149024804F071B879DA00087E
:10337C00AC070020014804F025B800BFAC070020C2
:10338C0008B50449044803F03FFFBDE80840034872
:10339C0001F0F6BC0EDF0008F809002050000020F8
:1033AC0070B5164D164C174B2A7A204653F822103E
:1033BC0003F010FF144E1549204603F00BFF0A22B0
:1033CC00B5F90610204603F069FF3146204603F09C
:1033DC0001FFB5F904300E4A013B52F82310204688
:1033EC0003F0F8FE3146204603F0F4FE69882046CF
:1033FC00BDE870400A2203F051BF00BFB80700209F
:10340C00F80900206800002078E8000818DF0008A0
:10341C0020000020092810B5044604D80A220021F7
:10342C00044803F03BFF2146BDE810400A22014846
:10343C0003F041BFF8090020632810B54FF00A02D1
:10344C00044608D80021074803F028FFE0B2BDE885
:10345C001040FFF7DFBF0146BDE81040014803F004
:10346C001DBF00BFF809002038B505460F4C207869
:10347C00FFF7D0FF0E490F4803F0ACFEA078FFF722
:10348C00C9FF0B490B4803F0A5FE2079FFF7C2FFDB
:10349C0055B10949074803F09DFE084801F088FC26
:1034AC00BDE83840FFF7C8BF38BD00BFC8070020D3
:1034BC002BDC0008F809002054DB00085000002029
:1034CC0038B5124B124C9A69D969124D41EA024136
:1034DC002046114A296001F089FC20460F4C104A05
:1034EC00296801F0CDFCFFF75BFF0E49204603F085
:1034FC0071FE0120FFF7B8FF204603F073FEBDE814
:10350C0038404FF4FA7002F0B3BD00BF0028004001
:10351C0050000020C4070020C8070020F809002034
:10352C00B807002078E8000808B50649064803F0FB
:10353C006BFEFFF725FFFFF7C3FF012002F098FD9C
:10354C00F9E700BFFBDE0008F80900202DE9F04F79
:10355C00002480468FB00D46DDE919674F4992462D
:10356C009B46FEF729FBCDE9014400944C4B4D4A98
:10357C004FF47A714046FEF7FFFA0128A14629D193
:10358C002C22D8F8001008A803F0ECFE00230C2223
:10359C0005A908A804F0D4F8012C1FD0022C2BD0BC
:1035AC0008A8013403F00EFF032CE9D10A22D8F845
:1035BC0000100BA803F0D6FE00233B4ACDE90133E3
:1035CC0000934FF47A71364B4046FEF7D5FA0BA8B0
:1035DC0003F0F8FE48460FB0BDE8F08F08A804F0E1
:1035EC00E4F90128DCD108A804F0DFF910F1000996
:1035FC0018BF4FF00109D3E708A9042300220BA838
:10360C0004F0FCF80BA804F0D0F928600BA803F028
:10361C00D9FE08A9062304220BA804F0EFF80BA886
:10362C0004F0C3F9CAF800000BA803F0CBFE08A9FC
:10363C00082306220BA804F0E1F80BA804F0B5F956
:10364C00CBF800000BA803F0BDFE08A908220A2342
:10365C000BA804F0D3F80BA804F0A7F9189B18607A
:10366C000BA803F0AFFE08A90C230A220BA804F048
:10367C00C5F80BA804F099F930600BA803F0A2FE72
:10368C000E230C2208A90BA804F0B8F80BA804F020
:10369C008CF938600BA803F095FE81E77DDA000801
:1036AC00AFDF000886DA0008AADF00082DE9F04F2A
:1036BC000446002589B08B46DDE912976B4992468A
:1036CC009846149EFEF778FACDE901550095684BA3
:1036DC00684A4FF47A712046FEF74EFA012840F002
:1036EC00C1802C22216805A803F03CFE05A803F03C
:1036FC0069FE2C22216805A803F034FE05A804F00D
:10370C0054F9054605A803F05DFE6B1E5D424FF0B3
:10371C002C02216805A85D4103F024FE05A803F0E6
:10372C0051FE2C22216805A803F01CFE05A804F00C
:10373C0048F9CBF8000005A803F044FE2C222168C0
:10374C0005A803F00FFE05A804F03BF9CAF8000029
:10375C0005A803F037FEB9F1000F0ED02C2221681A
:10376C0005A803F0FFFD05A804F02BF9FDF726FCD6
:10377C00C9F8000005A803F025FEB8F1000F0CD025
:10378C002C22216805A803F0EDFD05A804F019F919
:10379C00C8F8000005A803F015FE2C22216805A826
:1037AC0003F0E0FD05A803F00DFE2C22216805A80E
:1037BC0003F0D8FD05A803F005FE2C22216805A80E
:1037CC0003F0D0FD05A803F0FDFD2C22216805A80F
:1037DC0003F0C8FD05A803F0F5FD2C22216805A80F
:1037EC0003F0C0FD05A803F0EDFD2C22216805A80F
:1037FC0003F0B8FD05A803F0E5FD05A82C2221680F
:10380C0003F0B0FD05A803F0DDFD5FB12C222168AB
:10381C0005A803F0A7FD05A804F0C7F8386005A8B3
:10382C0003F0D0FD5EB12C22216805A803F09AFDAF
:10383C0005A804F0BAF8306005A803F0C3FD0A220D
:10384C00216805A803F08EFD05A803F0BBFD00233D
:10385C00094ACDE9013300934FF47A71044B2046A9
:10386C00FEF78AF9284609B0BDE8F08F7DDA00082A
:10387C00AFDF000886DA0008AADF00082DE9F04F58
:10388C008846A5B0A6490446924603F0E0FD0AAB73
:10389C00029309AB019308AB009306AA07AB05A9E9
:1038AC004046FFF753FE9F4E0A2205990FA803F0DE
:1038BC005BFE0FA912A803F013FE314612A803F009
:1038CC00D3FE074615AD0A220699284603F04CFE96
:1038DC002946384603F0BCFE314603F0C5FE0746C8
:1038EC0018AE0A220799304603F03EFE31463846A0
:1038FC0003F0AEFE8C4903F0B7FE81461BAF0A22E3
:10390C000899384603F030FE4846DFF84C923946A9
:10391C0003F09EFE494603F0A7FE83460A2209994E
:10392C001EA803F021FE1EA9584603F091FE49463D
:10393C0003F09AFE81460A220A9921A803F014FE8C
:10394C0021A9484603F084FE01460CA803F0C8FDEB
:10395C0021A803F037FD1EA803F034FD384603F010
:10396C0031FD304603F02EFD284603F02BFD12A846
:10397C0003F028FD0FA803F025FD12AB0FAA00954C
:10398C000BA9CDE901674046FFF790FE674D6849EA
:10399C0021A803F05CFD514621A803F059FE2946ED
:1039AC0003F062FE0146204603F021FE21A803F03D
:1039BC0009FD604921A803F04AFD0CA921A803F0D8
:1039CC0047FE294603F050FE0146204603F00FFE49
:1039DC0021A803F0F7FC584921A803F038FD574DF6
:1039EC000A220B991EA803F0D1FD1EA921A803F0F1
:1039FC002FFE294603F038FE0146204603F0F7FD62
:103A0C001EA803F0DFFC21A803F0DCFC4C4921A824
:103A1C0003F01DFD0A220F991EA803F0B7FD1EA985
:103A2C0021A803F015FE294603F01EFE0146204690
:103A3C0003F0DDFD1EA803F0C5FC21A803F0C2FCB9
:103A4C00404921A803F003FD022212991EA803F09D
:103A5C009DFD1EA921A803F0FBFD294603F004FEE1
:103A6C000146204603F0C3FD1EA803F0ABFC21A8C1
:103A7C0003F0A8FC344921A803F0E9FC0A221599AB
:103A8C001EA803F071FD1EA921A803F0E1FD294633
:103A9C0003F0EAFD0146204603F0A9FD1EA803F041
:103AAC0091FC21A803F08EFC284921A803F0CFFC3F
:103ABC000A2218991EA803F057FD1EA921A803F08D
:103ACC00C7FD294603F0D0FD0146204603F08FFDCB
:103ADC001EA803F077FC21A803F074FC1C4921A854
:103AEC0003F0B5FC0A221B991EA803F03DFD1EA98C
:103AFC0021A803F0ADFD174903F0B6FD01462046A1
:103B0C0003F075FD1EA803F05DFC21A803F05AFC20
:103B1C000CA803F057FC204625B0BDE8F08F00BF81
:103B2C0079DA0008B7DF000878E8000875DD0008CE
:103B3C00B9DF0008C3DF0008CADF000876DD000823
:103B4C00D1DF0008D8DF0008E1DF0008E8DF00085B
:103B5C00F2DF000898E000082BDC0008002307B512
:103B6C001A4600931946034803F0FEFA03B05DF8B9
:103B7C0004FB00BFD007002038B50C4607F0C6F98F
:103B8C008000FDF773F8054664B1C4F58050FDF76D
:103B9C0071F801460448FDF775F901462846FDF712
:103BAC00BDF838BD0149F9E700007041A553733BDE
:103BBC00F0B5044617461E4685B00D46154903F070
:103BCC0046FC1549204603F016FD3946204603F005
:103BDC000EFDA6B1114901A803F039FC294601A834
:103BEC0003F036FD0E4903F03FFD0146204603F07D
:103BFC00FEFC01A803F0E6FB204605B0F0BD094928
:103C0C0001A803F024FC294601A803F021FD064974
:103C1C00E9E700BF79DA000872E000087CE00008F0
:103C2C0098E0000889E0000897E000087FB504469A
:103C3C000D463F4903F00BFC3E49204603F0DBFCEC
:103C4C00294601A83C4E03F002FC01A9204603F0D2
:103C5C00CEFC01A803F0B6FB3146204603F0CBFCAA
:103C6C003649204603F0C7FC05F1370101A803F0E3
:103C7C00EEFB01A9204603F0BAFC01A803F0A2FB5D
:103C8C003146204603F0B7FC2D49204603F0B3FC27
:103C9C000A22296D01A803F067FC01A9204603F054
:103CAC00A6FC01A803F08EFB3146204603F0A3FCD2
:103CBC002449204603F09FFC0A22696D01A803F0F9
:103CCC0053FC01A9204603F092FC01A803F07AFBF7
:103CDC003146204603F08FFC1B49204603F08BFC39
:103CEC0005F1190101A803F0B2FB01A9204603F06C
:103CFC007EFC01A803F066FB3146204603F07BFCFA
:103D0C001249204603F077FC05F1280101A803F0C5
:103D1C009EFB01A9204603F06AFC01A803F052FBAC
:103D2C000B49204603F067FC204604B070BD00BF71
:103D3C0079DA0008FCDF000875DD000805E00008F2
:103D4C0010E0000819E0000826E0000833E0000845
:103D5C0097E0000800B58BB0014604A803F0C0FB47
:103D6C000C4901A803F073FB002301AA04A907A8BE
:103D7C00FFF71EFF07A9084803F03CFA07A803F059
:103D8C0021FB01A803F01EFB04A803F01BFB0BB0E6
:103D9C005DF804FB66E00008F809002030B5054624
:103DAC000C468DB01B49684603F051FB1A49684616
:103DBC0003F021FC2946684603F019FC17496846B4
:103DCC0003F019FC2146684603F011FC14496846BF
:103DDC0003F011FC694606A803F082FB114903A805
:103DEC0003F035FB012303AA06A909A8FFF7E0FE9F
:103DFC0009A90D4803F0FEF909A803F0E3FA03A89A
:103E0C0003F0E0FA06A803F0DDFA684603F0DAFAEC
:103E1C000DB030BD79DA00086AE0000893E00008C4
:103E2C0097E000086DE00008F809002000B58BB0A1
:103E3C00014601A8FFF7FAFE0C4904A803F007FBA2
:103E4C00012304AA01A907A8FFF7B2FE07A9084895
:103E5C0003F0D0F907A803F0B5FA04A803F0B2FAFE
:103E6C0001A803F0AFFA0BB05DF804FB5FE00008AB
:103E7C00F809002070B506460D4614468CB0204952
:103E8C00684603F0E4FA1F49684603F0B4FB314678
:103E9C00684603F0ACFB1C49684603F0ACFB2946B2
:103EAC00684603F0A4FB1949684603F0A4FB2146BD
:103EBC00684603F09CFB1649684603F09CFB694678
:103ECC0006A803F00DFB134903A803F0C0FA012365
:103EDC0003AA06A909A8FFF76BFE09A90E4803F06F
:103EEC0089F909A803F06EFA03A803F06BFA06A887
:103EFC0003F068FA684603F065FA0CB070BD00BFB9
:103F0C0079DA000872E0000840E000084CE0000894
:103F1C0097E0000858E00008F809002030B5044686
:103F2C0097B0684603F0DCFA06232C22694603A8F6
:103F3C0000F076F8684603F045FA002203A96846BB
:103F4C0000F012F9002321461922684603F0F8FB11
:103F5C00684603F037FA012203A9684600F004F919
:103F6C00002304F119010F22684603F0E9FB6846AF
:103F7C0003F028FA022203A9684600F0F5F80023A2
:103F8C0004F128010F22684603F0DAFB684603F0BF
:103F9C0019FA032203A9684600F0E6F8002304F19D
:103FAC0037011922684603F0CBFB684603F00AFA86
:103FBC00042203A9684600F0D7F8684603F0F5FC24
:103FCC002065684603F0FEF9052203A9684600F057
:103FDC00CBF8684603F0E9FC6065684603F0F2F93B
:103FEC0005240C2503AB05FB043003F0EBF914F1AD
:103FFC00FF34F7D217B030BDF8B500240E46174683
:10400C002546B368A34209D92146304603F08AFB02
:10401C0003780134BB4208BF0135F2E72846F8BDEE
:10402C002DE9F04704460E4690461F460546DFF83C
:10403C0034A18CB000F14809284651460C3503F0E8
:10404C0006FA4D45F8D100233146A36409A803F0C4
:10405C0047FA424609A92046FFF7CEFF0130A0647B
:10406C0009A803F0AFF9A36C012B01DD012F09D8CE
:10407C0001233146A364204603F023FA20460CB0FA
:10408C00BDE8F087BB4288BFA764A36C4146062BF2
:10409C0088BF0623684688BFA36403F044FA3149FD
:1040AC0003A803F0D4F9314606A803F019FA002648
:1040BC004FF00C08694606A803F077FB00283EDB9E
:1040CC00A36C013BB3423ADD0025089B2F469D4271
:1040DC00F0D201352B463A4606A909A803F08EFB0F
:1040EC00694609A803F0E9FA814609A803F06AF9C0
:1040FC00B9F1000FE9D03B46002206A909A803F04C
:10410C007DFB09A903A803F0F5F909A803F05AF9F6
:10411C00089B2A4606A909A803F070FB09A906A862
:10412C0003F0E8F909A803F04DF9059B002BC1D069
:10413C0008FB064003A903F0C4F90136BAE7089B53
:10414C002BB10C2006A900FB064003F0BAF906A817
:10415C0003F038F903A803F035F9684603F032F997
:10416C008CE700BF79DA0008002A10B5044609DB99
:10417C008B6C934206DD0C2303FB021103F0B0F9A8
:10418C00204610BD0249204603F061F9F8E700BF54
:10419C0079DA0008F8B5056872B60021284606F0F1
:1041AC00C7FE62B67D242A4F2A4E601E10F0FF0413
:1041BC004BD03368284A7968B3FBF2F35B007A681A
:1041CC00521A9342FBDC284606F024FF0028ECD060
:1041DC0072B60021284606F0F9FE0121284606F0A9
:1041EC00A7FE62B61C4B32687968B2FBF3F34FF44E
:1041FC00F0725A43164C63685B1A9A42FBDC72B637
:10420C000021284606F094FE3268134B6168B2FB1D
:10421C00F3F346225A430E4C63685B1A9A42FBDC5A
:10422C00284606F0F7FEB0FA80F0400962B60A4B59
:10423C0032686168B2FBF3F34FF4CD725A43044C0D
:10424C0063685B1A9A42FBDCF8BD2046FCE700BFB2
:10425C00001000E0B000002040420F0070B511F0DB
:10426C0001010568264C274E25D072B60021284640
:10427C0006F0ACFE0121284606F05AFE3268224BAD
:10428C006168B2FBF3F30A225A4363685B1A9A42E1
:10429C00FBDC0121284606F099FE62B61A4B326807
:1042AC006168B2FBF3F337225A43154843685B1A33
:1042BC009A42FBDC70BD72B6284606F087FE0121DF
:1042CC00284606F035FE33680F4A6168B3FBF2F3FB
:1042DC0003EB83136268521A9342FBDC01212846DC
:1042EC0006F074FE62B6084A33686168B3FBF2F3F9
:1042FC00034803EB83034268521A9342FBDCD9E771
:10430C00001000E0B000002040420F0070B50668BD
:10431C0072B6012130461A4C06F00AFE00213046D6
:10432C0006F054FE2368174A174DB3FBF2F3696885
:10433C0003EB43036A68521A9342FBDC00213046BC
:10434C0006F0F6FD22680F4B6968B2FBF3F30A2204
:10435C005A430D4D6B685B1A9A42FBDC304606F0F3
:10436C0059FEC0B262B6074B22686968B2FBF3F320
:10437C0035225A43044C63685B1A9A42FBDC70BDCD
:10438C00B000002040420F00001000E02DE9F04189
:10439C000546884616460827012418EA040F14BF60
:1043AC00012100212846FFF759FF6400013FE4B2C8
:1043BC00F3D14EB972B63146286806F0B9FD3146D4
:1043CC00286806F003FE62B6BDE8F0810023C0E960
:1043DC00023303828374704708B500230160436085
:1043EC00FFF7F4FF08BD2DE9F04704468946006845
:1043FC00002106F09DFDA77C77B100202082A074DF
:10440C0004F1080309F1FF39103413F8012BA3420E
:10441C0009F8012FF9D105E02046FFF7BBFE18B9CA
:10442C002082A074BDE8F08701263A46F021204690
:10443C00FFF7ACFFB84635462046FFF767FF8246CC
:10444C002046FFF763FFBAF1010F0CD101282AD1E6
:10445C00402DD2D927740FB90123A374237A002BD2
:10446C00CBD00120CCE7824504EB080310D1227C91
:10447C00AA4212D91A7A164214BF4FF0010A4FF011
:10448C00000ABAF1000F0ED1082D00D865742F4622
:10449C001A7A22EA06021A720CE00CBF4FF0010ADB
:1044AC004FF0000AEDE74FF0010A04EB0802137A13
:1044BC0033431372514620467600FFF7CFFE16F0B9
:1044CC00FF0604BF08F101085FFA88F805F1010541
:1044DC0008BF0126B8F1070FEDB2ADD9B8E770B53A
:1044EC0004460D4606F0BCFDC4F89000A0682946B1
:1044FC00BDE8704003681B68184770B504460D464C
:10450C00164606F0ADFDC4F89000A068324603686C
:10451C002946BDE870405B681847000070B500255F
:10452C00084B0446456040F8A03B0E4602F014FED2
:10453C004FF0FF33A660C4F8B430C4F8B050204636
:10454C0070BD00BFA4E000082DE9F04105460E4601
:10455C0006F086FD43F697278046A86803689B689B
:10456C009847044648B903F0CFFA06F079FDA0EB62
:10457C000800B842F1D9204605E0A8680368DB685A
:10458C00984730700120BDE8F08138B51488154685
:10459C002144FFF7D9FF08B101342C8038BD2DE937
:1045AC00F743002700F10C0588460DF10602294659
:1045BC000446ADF80670FFF7E8FF18B9002003B009
:1045CC00BDE8F083012694F80C908DF80570BDF8C9
:1045DC000630052B08D14FF0FF33A068C4F8B43077
:1045EC000368DB6A9847E9E70DF105012046FFF700
:1045FC00ABFF0028E2D0BDF806209DF80510531C37
:10460C002244117301F07F0202FB06779BB20A066B
:10461C00ADF80630BFB24FEAC616D8D409F0F0098F
:10462C00013BB9F1300F88F800301ED10DF10602B4
:10463C0029462046FFF7A9FF0028BFD00DF106023E
:10464C0029462046FFF7A1FF0028B7D098F8003084
:10465C0023445A7B9E7B237B06EB02269B07B6B238
:10466C0001D50236B6B2022501E000252E46ADB2C8
:10467C00BD4228D20DF105012046FFF765FF002849
:10468C009CD0D4F8B00078B1B9F1300F0CD1BDF892
:10469C00063098F800209B1A023BB34204DD0368F5
:1046AC009DF805101B689847BDF8063001357F2B27
:1046BC009CBF9DF80510E21803F1010398BF11731C
:1046CC00ADF80630D3E7D4F8B0302BB9BDF80620DE
:1046DC00802A88BFADF80630BDF806006FE70120D0
:1046EC00704773B5002403F07F057F2B04F10100A4
:1046FC000DF1080C88BF45F080056444C0B27F2BD7
:10470C0004F8045CC3F3CF1604460ED8C0F10403BE
:10471C00C0F10504D154144401AB0532944206D0C7
:10472C0013F8011B04F8011BF8E73346DBE70130F3
:10473C0002B070BDF8B5064617461C46FFF7D1FF10
:10474C00B368C0B21A680444C0F105015568394415
:10475C0022461846A847054606F082FCC6F890008B
:10476C00A8B2031B58425841F8BD70B5002402335F
:10477C009BB20139651C4E5D181980B216B11654E6
:10478C002C46F7E7A3B2C11A0A441B1202F8023CEA
:10479C0002F8014C70BD38B50546806808B9002098
:1047AC0038BD03681B6B984780B9D5F8B440002C12
:1047BC00F5D16FF00203A868C5F8B43003685B69E3
:1047CC009847A8680368DB6A9847E8E70120E7E7A1
:1047DC002DE9F04F85B00446894617461E460E9DBE
:1047EC009DF848A0FFF7D7FF8046002840F0CF8007
:1047FC00A068D4F8A8100368B4F8AC20002940D005
:10480C005B6A9847012840F0C980674BA4F88C007C
:10481C00029345F25443ADF80C30042302AA8DF8F0
:10482C000E3004F1180104F1110312F8010B03F816
:10483C00010B9942F9D165B39DF840309DF83C20AD
:10484C005B0143EAC20343F00403DBB2BAF1000F8D
:10485C0001D043F0020317B1EEB943F08003237685
:10486C004FF00F0B002384F81AB063764846FBF721
:10487C0051FC1130802811D9A0680368DB6A984775
:10488C0085E04A491B6A0291D4F8A410039102A94D
:10489C00B7E72B46DAE743F0C003E0E704F10C0A74
:1048AC0049465B4652462046FFF75FFF8146E5B11D
:1048BC002846FBF72FFC09F1020318448028DBD8AB
:1048CC0029464B4652462046FFF74FFF05461198A6
:1048DC00FBF720FC023028448028CDD82B465246CA
:1048EC0011992046FFF741FF8146F7B13846FBF797
:1048FC0011FC09F1020318448028BDD84B465246DE
:10490C0039462046FFF731FF814676B13046FBF73A
:10491C0001FC09F1020318448028ADD84B465246DD
:10492C0031462046FFF721FF8146A9F105039BB2D2
:10493C00524610212046FFF7FDFE06F091FB43F690
:10494C009725C4E92400A06803689B68984758B968
:10495C0006F086FBD4F89430C01AA842F3D96FF055
:10496C000303C4F8B43087E70DF107012046FFF7C5
:10497C0016FE042880D1E57B6DB906F071FB4FF073
:10498C000108C4F8940084F89850C4F8B450404618
:10499C0005B0BDE8F08FC4F8B4506DE76FF00103BB
:1049AC00C4F8B430F3E700BF00044D5150E40008E4
:1049BC007FB500230122CDE90133CDE90332009309
:1049CC001A46FFF705FF07B05DF804FB2DE9F74F1A
:1049DC000446FFF7E0FE8146D8B106F041FB43F6F2
:1049EC009822D4F894308046C31A934204D8D4F851
:1049FC009030C31A93421DD994F89830A06863B1D3
:104A0C006FF00303C4F8B43003684FF00009DB6A9D
:104A1C009847484603B0BDE8F08F2146C02321F8E3
:104A2C000C3F036802225B6898470123C4E9248881
:104A3C0084F89830A06803689B6898470028E8D0F1
:104A4C000DF107012046FFF7AAFD0546002866D0A8
:104A5C00237BC4F8948003F0F003302B4CD1D4F8B2
:104A6C009C30002BD5D09DF8076004F10C0AB31CC8
:104A7C0004EB030BA219517B9BF80C70534407EB0E
:104A8C000127BFB2F11C3A465144184606F04AFBC6
:104A9C000022BB448BF80C20217BAA1B01F00601E1
:104AAC00033A022906F103010346A2EB0702D4F8EC
:104ABC009C5039441DD12144087B91F80DB0711DD7
:104ACC0039440BEB002B023A18465144A8474FF4DB
:104ADC0010731FFA8BFBA0689BFA9BFBA381A4F8B5
:104AEC000EB0036804225B6851469847C4F8908066
:104AFC008FE75144A8478CE7C02B09D1D023A0687D
:104B0C00A381036802225B6804F10C01984780E7DB
:104B1C00D02B7FF47EAF002384F8983079E72046C1
:104B2C00FFF739FE002808BF4FF0000971E72DE9A7
:104B3C00F0470446894690461E469DF82070FFF7C4
:104B4C002AFE38B34846FBF7E5FAF31D18448028D3
:104B5C0020D804F10C052A46052349462046FFF7C8
:104B6C0004FE0022831896429BB206D918F8021054
:104B7C0023440132197392B2F4E7002FA3F1050319
:104B8C002A462046BDE8F0479BB20CBF30213121AC
:104B9C00FFF7D0BD0020BDE8F08773B50546104681
:104BAC000E461446FBF7B6FA002322460093314614
:104BBC0003462846FFF7BBFF02B070BD2DE9F0415C
:104BCC0005460E4614469846FFF7E5FD40B305F141
:104BDC000C07314605233A462846FFF7C6FD631FEE
:104BEC00B8F1000F03440CBF3021312106469BB2B3
:104BFC003A462846FFF775FD0146A868053E03684E
:104C0C000E44C1F105015B683246394498470446AD
:104C1C0006F026FAC5F89000A0B2831B5842584102
:104C2C00BDE8F081012A2DE9F04104460F461646F5
:104C3C002AD80846FBF76EFA0930802824D820467B
:104C4C00FFF7A9FD00B3B4F88C3001339BB2CBB1A4
:104C5C00A4F88C30B4F88C3004F10C051A12627480
:104C6C00A3742A46394607232046FFF77EFD2318F6
:104C7C001E73031F2A462046BDE8F0419BB28221D9
:104C8C00FFF758BD0123E3E70020BDE8F0810022C7
:104C9C00FFF7C8BFC0F8A810A0F8AC207047C0F848
:104CAC009C107047002307B51A4600931946034819
:104CBC0002F05AFA03B05DF804FB00BFD8070020DD
:104CCC00044B5A6822F008025A605A681207FCD545
:104CDC00704700BF00280040024A136843F48073F9
:104CEC001360704700700040024A136823F480730D
:104CFC001360704700700040024A53689B06FCD555
:104D0C00704700BF0028004008B5FFF7E5FF194BBE
:104D1C001A6A42F480321A621A6A22F480321A62D7
:104D2C001A6A42F001021A621A6A9207FCD51A6AD0
:104D3C0042F480721A621A6A42F400421A62FFF755
:104D4C00BFFFFFF7D9FF0C4B5A6842F010025A60B4
:104D5C0047F6FF72DA605A6822F010025A60FFF7C9
:104D6C00CBFF064A136843F001031360BDE808400B
:104D7C00FFF7BABF0010024000280040046C00404E
:104D8C0009490A4B10B51B68CA6903F0010342F0CC
:104D9C00C052DCB2CA611BB1FFF792FF204610BDB6
:104DAC00FFF7B2FFFAE700BF00100240046C0040AE
:104DBC0008B50C4B1A69586940EA0240C0F5FF402F
:104DCC007F30FBF753FFFBF711FB00224FF07C53B6
:104DDC00FBF764FB0022044BFBF760FBFBF720FEA8
:104DEC0080B208BD0028004000408F40094BB1FB49
:104DFC00F3F000FB13114FF46160B1FBF0F313807F
:104E0C0000FB13133C20B3FBF0F100FB113351807A
:104E1C00938070478051010030F811001AB10129BC
:104E2C00C4BF013080B270470000000010B5A1F281
:104E3C00B2700C46FBF71EFFFBF7D8FA0DA3D3E9B3
:104E4C000023FBF72BFB00220C4BFBF771F9FBF754
:104E5C0007FE40F634029442034604D94FF07C51CD
:104E6C00FBF752FE03461846FCF7CEF880B210BD95
:104E7C00AFF300800000000000D476400000D03F6B
:104E8C002DE9F047284D40F26D16B1FBF5F5ACB2AB
:104E9C00B4FBF6F606F2B2791FFA89F9148049468A
:104EAC0007469046FFF7C2FF84422DD3A8F8029024
:104EBC00B8F80260B30730D140F63403F61A18BFC5
:104ECC0001260B234FF6FF7A241A88F80960A4B246
:104EDC00324619B238464FFA83F9FFF79DFF8442E8
:104EEC001DD30134241A09F10103A8F80640A8F8CF
:104EFC00043007230435B5FBF3F3C3EBC303ED1AFE
:104F0C0088F80850BDE8F08706F2B17189B2A8F8AC
:104F1C0002103846FFF78AFFCAE70026D1E7013BAB
:104F2C009BB25345D4D1E4E780510100104B10B52E
:104F3C001C685B681C40A4B2E30703D50D4B1B68CF
:104F4C0003B19847A00703D50B4B1B6803B19847D7
:104F5C00610703D5094B1B6803B19847044B5A688A
:104F6C009206FCD55A6822EA04045C6010BD00BFAE
:104F7C0000280040E8070020E4070020E00700209C
:104F8C00006805F0EFBC10B50446006805F024FD80
:104F9C00204610BD2DE9F34705462321002005F0DE
:104FAC001BFD2846FBF7B6F80023804604B21AB264
:104FBC00944203F1010606DDE95C01A80196FFF7B6
:104FCC00E2FF3346F3E70196232101A805F13706EA
:104FDC00FFF7D9FF3046FBF79DF8002281460234DB
:104FEC0024B20FFA80FA08F1020897B207EB080313
:104FFC0052459BB208DA16F8011B01A80137019340
:10500C00FFF7C1FF3AB2F0E7232101A805F1190817
:10501C000193FFF7B8FF4046FBF77CF84C440022A5
:10502C008146A4B20134A7B20FFA80FA96B23319B2
:10503C0052459BB208DA18F8011B01A801360193FE
:10504C00FFF7A1FF32B2F1E7232101A805F1280AED
:10505C000193FFF798FF5046FBF75CF84F44BFB243
:10506C007E1CB6B2C7F57F470FFA86F90FFA80F8A7
:10507C00FE374A461FFA89F4631C9BB20FFA83F978
:10508C003B441BB29845019205DD1AF8011B01A89F
:10509C00FFF779FFEDE7B8F1000FA8BF46442321D5
:1050AC0001A80136FFF76FFFB6B295F8501001A8B2
:1050BC000196FFF768FFA31C1BB295F8511001A8CD
:1050CC000193FFF760FFE31C1BB295F8521001A887
:1050DC000193FFF758FF231D1BB295F8531001A83D
:1050EC000193FFF750FF631D1BB2232101A801930D
:1050FC00FFF749FFA31D1BB295F8541001A80193AB
:10510C00FFF741FFE31D1BB295F8551001A8019361
:10511C00FFF739FF04F108031BB295F8561001A8EC
:10512C000193FFF730FF04F109031BB295F85710F8
:10513C0001A80A34019324B2FFF725FF232101A80B
:10514C000194FFF720FF02B0BDE8F0872DE9F74F7F
:10515C000646002005F006FC232840F0C3800024FE
:10516C00651C01A80195FFF70BFFA71C23283FB274
:10517C006FD1002535553C4606F1370807EB050A7B
:10518C0001A8CDF804A0FFF7FBFE1FFA84F909F182
:10519C000104232824B263D10023A0466FEA090935
:1051AC00354485F83730A3B25F1C03EB0905BFB259
:1051BC00C72B2DB2C3463CB20DD801A8CDF8048044
:1051CC00FFF7DEFE232808F1010806EB050A50D193
:1051DC0000258AF81950A146ED1BA7B207EB05086C
:1051EC00C72C07F101070FFA88F8CA463FB20EDC4C
:1051FC0001A8CDF80490FFF7C3FE232809F101099B
:10520C0006EB08043DD14FF0000884F828803B469B
:10521C004FF0000A5D1C0AEB0804ADB2C72B24B298
:10522C0007EB0A0B0FFA85F935DC01A8CDF804B0B1
:10523C00FFF7A6FE23282DD001A8CDF804B0FFF768
:10524C009FFE02AB1C4404F8080C0AF1010A4B4601
:10525C00E0E701A80195FFF793FE30552C467FE758
:10526C0001A8CDF804A0FFF78BFE013508F8010B5F
:10527C0084E701A8CDF804B0FFF782FE8AF8190084
:10528C0091E701A8CDF804A0FFF77AFE84F8280076
:10529C003C46A2E700244FF00008009B33651FFA40
:1052AC0088F31F192B441BB2C72B3FB209EB080A1A
:1052BC0012DC01A8CDF804A0FFF762FE232808F148
:1052CC00010809D001A8CDF804A0FFF759FE02ABE4
:1052DC001F4407F8080CE2E70120009B736503B03C
:1052EC00BDE8F08F0020FAE74FF0FF3200F1080321
:1052FC004360C0E90223036100230360704700236D
:10530C000361704743689A684B608A609A68516081
:10531C009960036808610133036070470A6830B50F
:10532C00531C0AD103695A684A6091608B605960BA
:10533C00036808610133036030BD00F108035C6849
:10534C0025689542EFD82346F9E70369D0E90112A5
:10535C008A6051605968814208BF5A60002202611C
:10536C001A68013A1A601868704710B5044601F0C3
:10537C000BFBA46B01F02AFBB4FA84F0400910BDBE
:10538C0070B51546026C0446866B42B905689DB92A
:10539C00406800F0FDFF65600136A66370BD6DB915
:1053AC00806805F0B1FEA368226C13446268A360A8
:1053BC00934201D32368A3600020EDE7C06805F099
:1053CC00A3FE236CE2685B4221681A448A42E260C5
:1053DC003EBF62689B18E360022DEDD10EB1013E19
:1053EC00EAE73046D8E703461A6C10B4084662B1B7
:1053FC00D9685C681144A142D96028BF196810BCF7
:10540C0028BFD960D96805F07FBE10BC704770B555
:10541C00044601F0B9FA94F8455004F124066DB233
:10542C00002D14DCFF2384F8453001F0CFFA01F095
:10543C00ABFA94F8445004F110066DB2002D12DC56
:10544C00FF2384F84430BDE8704001F0BFBA636AB2
:10545C00002BE7D0304600F0FBFE08B100F082FFD5
:10546C00013D6DB2DCE72369002BE9D0304600F03A
:10547C00EFFE08B100F076FF013D6DB2DEE70000F3
:10548C0038B50D46044640B94FF0500383F31188EC
:10549C00BFF36F8FBFF34F8FFEE701F075FAD4E9BE
:1054AC000F3043432268D1181B1A13446160E36028
:1054BC000021FF23A163A26084F8443084F84530B6
:1054CC0095B9236963B104F1100000F0C1FE38B145
:1054DC004FF08052094B1A60BFF34F8FBFF36F8FA1
:1054EC0001F074FA012038BD04F11000FFF7FCFE46
:1054FC0004F12400FFF7F8FEF2E700BF04ED00E032
:10550C00F8B50D461746064640B94FF0500383F3E5
:10551C001188BFF36F8FBFF34F8FFEE748435030B6
:10552C0001F0D8F9044658B165B100F1500323607D
:10553C00C4E90F6501212046FFF7A2FF84F84C70E7
:10554C002046F8BD0346F2E72DE9FF478846019255
:10555C001F46044640B94FF0500383F31188BFF344
:10556C006F8FBFF34F8FFEE751B9036C43B14FF010
:10557C00500383F31188BFF36F8FBFF34F8FFEE798
:10558C00022F0BD1E36B012B08D04FF0500383F3A8
:10559C001188BFF36F8FBFF34F8FFEE700F0E8FE6B
:1055AC0050B9019E4EB14FF0500383F31188BFF3F5
:1055BC006F8FBFF34F8FFEE700264FF00009DFF827
:1055CC00E8A037E0019D1DB901F000FA002050E081
:1055DC0016B902A800F07EFE01F0F8F900F02AFCE2
:1055EC0001F0D2F994F84430FF2B08BF84F84490B2
:1055FC0094F84530FF2B08BF84F8459001F0E6F98C
:10560C0001A902A800F072FE002846D101F0BCF9F5
:10561C00A26BE36B9A422FD101F0D8F9019904F1F6
:10562C00100000F0DBFD2046FFF7F1FE00F0AAFCB5
:10563C0050B3012601F0A8F9A26BE36B9A4201D397
:10564C00022FBFD13A4641462046FFF799FE636AC6
:10565C001BB104F1240000F0FBFD38B14FF0805277
:10566C00114B1A60BFF34F8FBFF36F8F01F0AEF980
:10567C00012004B0BDE8F08701F0A8F92046FFF73F
:10568C00C6FE00F07FFCD4E74FF08053CAF8003020
:10569C00BFF34F8FBFF36F8FCBE72046FFF7B7FEFB
:1056AC0000F070FC92E700BF04ED00E02DE9F84338
:1056BC00894690461F46044640B94FF0500383F389
:1056CC001188BFF36F8FBFF34F8FFEE751B9036C97
:1056DC0043B14FF0500383F31188BFF36F8FBFF3C7
:1056EC004F8FFEE7022F0BD1E36B012B08D04FF04D
:1056FC00500383F31188BFF36F8FBFF34F8FFEE717
:10570C0001F022FAEFF311864FF0500383F3118866
:10571C00BFF36F8FBFF34F8FA26BE36B9A4201D332
:10572C00022F22D194F845503A466DB24946204694
:10573C00FFF726FE6B1C13D1636A0BB901200BE03B
:10574C0004F1240000F084FD0028F7D0B8F1000F1C
:10575C00F4D00120C8F8000086F31188BDE8F88366
:10576C0001356DB284F84550E8E70020F4E70000FD
:10577C002DE9F04385B00F460192044640B94FF035
:10578C00500383F31188BFF36F8FBFF34F8FFEE786
:10579C0051B9036C43B14FF0500383F31188BFF33D
:1057AC006F8FBFF34F8FFEE700F0E2FD50B9019E03
:1057BC004EB14FF0500383F31188BFF36F8FBFF3DB
:1057CC004F8FFEE700264FF00008DFF8E0903BE03B
:1057DC00019D1DB901F0FAF8002052E016B902A89B
:1057EC0000F078FD01F0F2F800F024FB01F0CCF8A9
:1057FC0094F84430FF2B08BF84F8448094F845306B
:10580C00FF2B08BF84F8458001F0E0F801A902A83D
:10581C0000F06CFD00283DD12046FFF7A6FD98B3A3
:10582C00019904F1240000F0D9FC2046FFF7EFFDAC
:10583C0000F0A8FB38B94FF08053C9F80030BFF323
:10584C004F8FBFF36F8F012601F09EF8A56B002DD3
:10585C00BED039462046013DFFF7C5FDA56323693F
:10586C0063B104F1100000F0F3FC38B14FF080523A
:10587C000E4B1A60BFF34F8FBFF36F8F01F0A6F87A
:10588C00012005B0BDE8F0832046FFF7C0FD00F015
:10589C0079FBD8E72046FFF7BAFD00F073FB2046F2
:1058AC00FFF763FD0028CED096E700BF04ED00E0C3
:1058BC00002330B5064A52F8335002EBC3041DB92D
:1058CC0042F83310606030BD0133082BF3D1FAE796
:1058DC009810002070B504460D46164601F054F899
:1058EC0094F84430FF2B04BF002384F8443094F820
:1058FC004530FF2B04BF002384F8453001F066F8D7
:10590C00A36B2BB93246294604F1240000F080FC2D
:10591C002046BDE87040FFF77ABD0268F0B503463B
:10592C001AB34268506803F108029042586004BFF1
:10593C00D86858605868C76858684D1E40688242DD
:10594C00586004BF506858605868C06800F134044F
:10595C0000F1440C14F801EB15F8016F764502D1F7
:10596C0026B16445F6D18742E6D10020F0BD000097
:10597C00064A13681968064B19B94FF0FF321A60C2
:10598C0070471268D268D2685268F8E7F0070020B6
:10599C00C8080020F8B51B4B1B4E1C680546306828
:1059AC000F460430FFF7D1FC334640B90120316873
:1059BC00164EC96A3268884022EA000232606A1CBC
:1059CC0007D137B1196812480431BDE8F840FFF728
:1059DC0099BC1A686419546007D30E4A1068196888
:1059EC00BDE8F8400431FFF799BC0B4A1068196800
:1059FC000431FFF793FC094B1A68A24288BF1C6064
:105A0C00F8BD00BF10090020EC070020980800200A
:105A1C00E8080020F4070020F0070020C808002048
:105A2C0080B5DFF87080174F174D184E2B6873B97F
:105A3C00174B1B68012B07D94FF08053C8F8003067
:105A4C00BFF34F8FBFF36F8F00F0E4FEECE700F075
:105A5C009BFFFB68DC68201DFFF777FC3368013B7C
:105A6C0033602B68013B2B6000F0B0FF04F1580051
:105A7C0005F036FC206B00F02FFF204600F02CFFC9
:105A8C00D4E700BFFC080020880800208408002010
:105A9C00F807002004ED00E02DE9F84F9600814650
:105AAC0030460D469A4600F015FF0746002800F0D8
:105ABC00C9804FF4916000F00DFF0446002800F0FF
:105ACC00BE8007633246A521384605F045FBD4F865
